{
  "address": "0x88E61D2989bc838EDbC275385831cB75539219b5",
  "abi": [
    {
      "inputs": [
        {
          "internalType": "contract IPokeMe",
          "name": "pokeMe_",
          "type": "address"
        },
        {
          "internalType": "contract IPokeMeResolver",
          "name": "pokeMeResolver_",
          "type": "address"
        }
      ],
      "stateMutability": "nonpayable",
      "type": "constructor"
    },
    {
      "anonymous": false,
      "inputs": [
        {
          "indexed": false,
          "internalType": "bytes32",
          "name": "salt",
          "type": "bytes32"
        },
        {
          "indexed": true,
          "internalType": "contract IERC20",
          "name": "short",
          "type": "address"
        },
        {
          "indexed": true,
          "internalType": "contract IERC20",
          "name": "base",
          "type": "address"
        },
        {
          "indexed": false,
          "internalType": "uint256",
          "name": "expiryTime",
          "type": "uint256"
        },
        {
          "indexed": false,
          "internalType": "uint256",
          "name": "strike",
          "type": "uint256"
        },
        {
          "indexed": false,
          "internalType": "uint256",
          "name": "timeBeforeDeadLine",
          "type": "uint256"
        },
        {
          "indexed": false,
          "internalType": "uint256",
          "name": "bcv",
          "type": "uint256"
        },
        {
          "indexed": false,
          "internalType": "uint256",
          "name": "initialTotalSupply",
          "type": "uint256"
        }
      ],
      "name": "OptionPoolCreated",
      "type": "event"
    },
    {
      "anonymous": false,
      "inputs": [
        {
          "indexed": false,
          "internalType": "address",
          "name": "account",
          "type": "address"
        }
      ],
      "name": "Paused",
      "type": "event"
    },
    {
      "anonymous": false,
      "inputs": [
        {
          "indexed": false,
          "internalType": "address",
          "name": "account",
          "type": "address"
        }
      ],
      "name": "Unpaused",
      "type": "event"
    },
    {
      "inputs": [
        {
          "internalType": "uint256",
          "name": "",
          "type": "uint256"
        }
      ],
      "name": "allOptions",
      "outputs": [
        {
          "internalType": "address",
          "name": "",
          "type": "address"
        }
      ],
      "stateMutability": "view",
      "type": "function"
    },
    {
      "inputs": [
        {
          "internalType": "contract IERC20",
          "name": "short_",
          "type": "address"
        },
        {
          "internalType": "contract IERC20",
          "name": "base_",
          "type": "address"
        },
        {
          "internalType": "uint256",
          "name": "expiryTime_",
          "type": "uint256"
        },
        {
          "internalType": "uint256",
          "name": "strike_",
          "type": "uint256"
        },
        {
          "internalType": "uint256",
          "name": "timeBeforeDeadLine_",
          "type": "uint256"
        },
        {
          "internalType": "uint256",
          "name": "bcv_",
          "type": "uint256"
        },
        {
          "internalType": "uint256",
          "name": "initialTotalSupply_",
          "type": "uint256"
        }
      ],
      "name": "createCallOption",
      "outputs": [
        {
          "internalType": "address",
          "name": "option",
          "type": "address"
        }
      ],
      "stateMutability": "nonpayable",
      "type": "function"
    },
    {
      "inputs": [
        {
          "internalType": "bytes32",
          "name": "",
          "type": "bytes32"
        }
      ],
      "name": "getCallOptions",
      "outputs": [
        {
          "internalType": "address",
          "name": "",
          "type": "address"
        }
      ],
      "stateMutability": "view",
      "type": "function"
    },
    {
      "inputs": [
        {
          "internalType": "contract IERC20",
          "name": "short_",
          "type": "address"
        },
        {
          "internalType": "contract IERC20",
          "name": "base_",
          "type": "address"
        },
        {
          "internalType": "uint256",
          "name": "expiryTime_",
          "type": "uint256"
        }
      ],
      "name": "getSalt",
      "outputs": [
        {
          "internalType": "bytes32",
          "name": "",
          "type": "bytes32"
        }
      ],
      "stateMutability": "pure",
      "type": "function"
    },
    {
      "inputs": [],
      "name": "paused",
      "outputs": [
        {
          "internalType": "bool",
          "name": "",
          "type": "bool"
        }
      ],
      "stateMutability": "view",
      "type": "function"
    },
    {
      "inputs": [],
      "name": "pokeMe",
      "outputs": [
        {
          "internalType": "contract IPokeMe",
          "name": "",
          "type": "address"
        }
      ],
      "stateMutability": "view",
      "type": "function"
    },
    {
      "inputs": [],
      "name": "pokeMeResolver",
      "outputs": [
        {
          "internalType": "contract IPokeMeResolver",
          "name": "",
          "type": "address"
        }
      ],
      "stateMutability": "view",
      "type": "function"
    }
  ],
  "transactionHash": "0x69cf0a9d6b74b4cad85094fccc70e96f3b3ebc6cf567799027baa1e94db65324",
  "args": [
    "0xB3f5503f93d5Ef84b06993a1975B9D21B962892F",
    "0x2b3aA6F9b5B1535985786B4bF81FDC994f7BF9C3"
  ],
  "solcInputHash": "85c5547de572ec02e3d55f3b636dd9df",
  "bytecode": "0x60c060405234801561001057600080fd5b5060405161340438038061340483398101604081905261002f9161004d565b6001600160601b0319606092831b8116608052911b1660a05261009f565b6000806040838503121561006057600080fd5b825161006b81610087565b602084015190925061007c81610087565b809150509250929050565b6001600160a01b038116811461009c57600080fd5b50565b60805160601c60a05160601c61332c6100d86000396000818161016b01526105710152600081816101440152610549015261332c6000f3fe608060405234801561001057600080fd5b506004361061007d5760003560e01c80638ea745b81161005b5780638ea745b8146100f6578063a586980f14610109578063c84eee0d1461013f578063fdb36f371461016657600080fd5b806327733e60146100825780635c975abb146100a85780638cc8b7c5146100be575b600080fd5b610095610090366004610c6e565b61018d565b6040519081526020015b60405180910390f35b60655460ff16604051901515815260200161009f565b6100d16100cc366004610caa565b6101e4565b60405173ffffffffffffffffffffffffffffffffffffffff909116815260200161009f565b6100d1610104366004610c55565b610793565b6100d1610117366004610c55565b60976020526000908152604090205473ffffffffffffffffffffffffffffffffffffffff1681565b6100d17f000000000000000000000000000000000000000000000000000000000000000081565b6100d17f000000000000000000000000000000000000000000000000000000000000000081565b6040805173ffffffffffffffffffffffffffffffffffffffff8086166020830152841691810191909152606081018290526000906080016040516020818303038152906040528051906020012090505b9392505050565b60008673ffffffffffffffffffffffffffffffffffffffff168873ffffffffffffffffffffffffffffffffffffffff1614156102a7576040517f08c379a000000000000000000000000000000000000000000000000000000000815260206004820152602e60248201527f436170707563696e6f3a3a4f7074696f6e466163746f72793a3a204944454e5460448201527f4943414c5f41444452455353455300000000000000000000000000000000000060648201526084015b60405180910390fd5b60006102b489898961018d565b905073ffffffffffffffffffffffffffffffffffffffff8916610359576040517f08c379a000000000000000000000000000000000000000000000000000000000815260206004820152603360248201527f436170707563696e6f3a3a4f7074696f6e466163746f72793a3a2073686f727460448201527f20746f6b656e205a45524f5f4144445245535300000000000000000000000000606482015260840161029e565b73ffffffffffffffffffffffffffffffffffffffff88166103fc576040517f08c379a000000000000000000000000000000000000000000000000000000000815260206004820152603260248201527f436170707563696e6f3a3a4f7074696f6e466163746f72793a3a20626173652060448201527f746f6b656e205a45524f5f414444524553530000000000000000000000000000606482015260840161029e565b60008181526097602052604090205473ffffffffffffffffffffffffffffffffffffffff16156104ae576040517f08c379a000000000000000000000000000000000000000000000000000000000815260206004820152602660248201527f436170707563696e6f3a3a4f7074696f6e466163746f72793a3a20504149525f60448201527f4558495354530000000000000000000000000000000000000000000000000000606482015260840161029e565b6000604051806020016104c090610bfd565b6020820181038252601f19601f820116604052509050818151602083016000f56040517f493292ef00000000000000000000000000000000000000000000000000000000815273ffffffffffffffffffffffffffffffffffffffff8c811660048301528b81166024830152604482018b9052606482018a90526084820189905260a482018890527f0000000000000000000000000000000000000000000000000000000000000000811660c48301527f0000000000000000000000000000000000000000000000000000000000000000811660e48301529194509084169063493292ef9061010401600060405180830381600087803b1580156105c257600080fd5b505af11580156105d6573d6000803e3d6000fd5b50506040517ff2fde38b00000000000000000000000000000000000000000000000000000000815233600482015273ffffffffffffffffffffffffffffffffffffffff8616925063f2fde38b9150602401600060405180830381600087803b15801561064157600080fd5b505af1158015610655573d6000803e3d6000fd5b5050506000838152609760205260408120805473ffffffffffffffffffffffffffffffffffffffff8088167fffffffffffffffffffffffff000000000000000000000000000000000000000092831681179093556098805460018101825594527f2237a976fa961f5921fd19f2b03c925c725d77b20ce8f790c19709c03de4d814909301805490911690911790556106f291508a163330876107ca565b61071373ffffffffffffffffffffffffffffffffffffffff8a1684866108ac565b60408051838152602081018a9052908101889052606081018790526080810186905260a0810185905273ffffffffffffffffffffffffffffffffffffffff808b1691908c16907fbbcf3497f979b35fe6aa0d3b48853e12c7882f9f7dd46a123ae59384c3dbdd529060c00160405180910390a35050979650505050505050565b609881815481106107a357600080fd5b60009182526020909120015473ffffffffffffffffffffffffffffffffffffffff16905081565b60405173ffffffffffffffffffffffffffffffffffffffff808516602483015283166044820152606481018290526108a69085907f23b872dd00000000000000000000000000000000000000000000000000000000906084015b604080517fffffffffffffffffffffffffffffffffffffffffffffffffffffffffffffffe08184030181529190526020810180517bffffffffffffffffffffffffffffffffffffffffffffffffffffffff167fffffffff0000000000000000000000000000000000000000000000000000000090931692909217909152610907565b50505050565b60405173ffffffffffffffffffffffffffffffffffffffff83166024820152604481018290526109029084907fa9059cbb0000000000000000000000000000000000000000000000000000000090606401610824565b505050565b6000610969826040518060400160405280602081526020017f5361666545524332303a206c6f772d6c6576656c2063616c6c206661696c65648152508573ffffffffffffffffffffffffffffffffffffffff16610a139092919063ffffffff16565b80519091501561090257808060200190518101906109879190610c33565b610902576040517f08c379a000000000000000000000000000000000000000000000000000000000815260206004820152602a60248201527f5361666545524332303a204552433230206f7065726174696f6e20646964206e60448201527f6f74207375636365656400000000000000000000000000000000000000000000606482015260840161029e565b6060610a228484600085610a2a565b949350505050565b606082471015610abc576040517f08c379a000000000000000000000000000000000000000000000000000000000815260206004820152602660248201527f416464726573733a20696e73756666696369656e742062616c616e636520666f60448201527f722063616c6c0000000000000000000000000000000000000000000000000000606482015260840161029e565b843b610b24576040517f08c379a000000000000000000000000000000000000000000000000000000000815260206004820152601d60248201527f416464726573733a2063616c6c20746f206e6f6e2d636f6e7472616374000000604482015260640161029e565b6000808673ffffffffffffffffffffffffffffffffffffffff168587604051610b4d9190610d08565b60006040518083038185875af1925050503d8060008114610b8a576040519150601f19603f3d011682016040523d82523d6000602084013e610b8f565b606091505b5091509150610b9f828286610baa565b979650505050505050565b60608315610bb95750816101dd565b825115610bc95782518084602001fd5b816040517f08c379a000000000000000000000000000000000000000000000000000000000815260040161029e9190610d24565b61255580610da283390190565b803573ffffffffffffffffffffffffffffffffffffffff81168114610c2e57600080fd5b919050565b600060208284031215610c4557600080fd5b815180151581146101dd57600080fd5b600060208284031215610c6757600080fd5b5035919050565b600080600060608486031215610c8357600080fd5b610c8c84610c0a565b9250610c9a60208501610c0a565b9150604084013590509250925092565b600080600080600080600060e0888a031215610cc557600080fd5b610cce88610c0a565b9650610cdc60208901610c0a565b96999698505050506040850135946060810135946080820135945060a0820135935060c0909101359150565b60008251610d1a818460208701610d75565b9190910192915050565b6020815260008251806020840152610d43816040850160208701610d75565b601f017fffffffffffffffffffffffffffffffffffffffffffffffffffffffffffffffe0169190910160400192915050565b60005b83811015610d90578181015183820152602001610d78565b838111156108a6575050600091015256fe608060405234801561001057600080fd5b5061001a33610031565b600c80546001600160a01b03191633179055610081565b600080546001600160a01b038381166001600160a01b0319831681178455604051919092169283917f8be0079c531659141344cd1fd0a4f28419497f9722a3daafe3b4186f6b6457e09190a35050565b6124c5806100906000396000f3fe608060405234801561001057600080fd5b50600436106101a35760003560e01c806399bc0aea116100ee578063c84eee0d11610097578063f01fe69211610071578063f01fe69214610399578063f2fde38b146103ac578063fd7dc99a146103bf578063fdb36f371461043657600080fd5b8063c84eee0d1461035d578063cea55f571461037d578063e75722301461038657600080fd5b8063b921e163116100c8578063b921e163146102f4578063bebf72c314610307578063c26923bc1461032757600080fd5b806399bc0aea146102cf578063ad8f5008146102d8578063b07f0a41146102e157600080fd5b80636c60a1f8116101505780637daafb921161012a5780637daafb92146102955780638da5cb5b146102a857806397cae24d146102c657600080fd5b80636c60a1f81461026457806370578c251461026d578063715018a61461028d57600080fd5b8063493292ef11610181578063493292ef1461021e5780635001f3b51461023157806363fd49981461025157600080fd5b80630dca59c1146101a857806315afd409146101c457806338bea4cb146101d9575b600080fd5b6101b160095481565b6040519081526020015b60405180910390f35b6101d76101d23660046120ea565b610456565b005b6001546101f99073ffffffffffffffffffffffffffffffffffffffff1681565b60405173ffffffffffffffffffffffffffffffffffffffff90911681526020016101bb565b6101d761022c366004612151565b6106ef565b6002546101f99073ffffffffffffffffffffffffffffffffffffffff1681565b6101d761025f3660046121d6565b6109d3565b6101b160055481565b600c546101f99073ffffffffffffffffffffffffffffffffffffffff1681565b6101d7610a59565b6101d76102a33660046121d6565b610ae6565b60005473ffffffffffffffffffffffffffffffffffffffff166101f9565b6101b160065481565b6101b160035481565b6101b160045481565b6101d76102ef3660046121d6565b610c01565b6101d76103023660046121d6565b6111c8565b6101b16103153660046120cd565b600b6020526000908152604090205481565b6101b16103353660046120cd565b73ffffffffffffffffffffffffffffffffffffffff166000908152600b602052604090205490565b6007546101f99073ffffffffffffffffffffffffffffffffffffffff1681565b6101b1600a5481565b6101b16103943660046121d6565b611271565b6101d76103a73660046121ef565b611290565b6101d76103ba3660046120cd565b6118b2565b6103d26103cd3660046120ea565b6119df565b6040516101bb9190600060c0820190508251825273ffffffffffffffffffffffffffffffffffffffff602084015116602083015260408301516040830152606083015160608301526080830151608083015260a0830151151560a083015292915050565b6008546101f99073ffffffffffffffffffffffffffffffffffffffff1681565b60075473ffffffffffffffffffffffffffffffffffffffff163314610502576040517f08c379a000000000000000000000000000000000000000000000000000000000815260206004820152602360248201527f4f7074696f6e506f6f6c3a3a6f6e6c79506f6b654d653a206f6e6c7920706f6b60448201527f654d65000000000000000000000000000000000000000000000000000000000060648201526084015b60405180910390fd5b73ffffffffffffffffffffffffffffffffffffffff82166000908152600b60205260408120600181018054919291849081106105405761054061243e565b60009182526020909120600690910201600581015490915060ff16156105e8576040517f08c379a000000000000000000000000000000000000000000000000000000000815260206004820152602660248201527f4f7074696f6e506f6f6c3a3a65786572636973653a20616c726561647920736560448201527f74746c65642e000000000000000000000000000000000000000000000000000060648201526084016104f9565b6005810180547fffffffffffffffffffffffffffffffffffffffffffffffffffffffffffffff001660011790556007546004808301546040517fee8ca3b50000000000000000000000000000000000000000000000000000000081529182015273ffffffffffffffffffffffffffffffffffffffff9091169063ee8ca3b590602401600060405180830381600087803b15801561068457600080fd5b505af1158015610698573d6000803e3d6000fd5b505060405173ffffffffffffffffffffffffffffffffffffffff871681528592503091507f9c74ef90c213472ba140e05bddffd943f46c1263de77366f7e551ee4b27731899060200160405180910390a350505050565b6000547501000000000000000000000000000000000000000000900460ff1680610734575060005474010000000000000000000000000000000000000000900460ff16155b6107c0576040517f08c379a000000000000000000000000000000000000000000000000000000000815260206004820152602e60248201527f496e697469616c697a61626c653a20636f6e747261637420697320616c72656160448201527f647920696e697469616c697a656400000000000000000000000000000000000060648201526084016104f9565b6000547501000000000000000000000000000000000000000000900460ff1615801561082757600080547fffffffffffffffffffff0000ffffffffffffffffffffffffffffffffffffffff1675010100000000000000000000000000000000000000001790555b86858082116108b8576040517f08c379a000000000000000000000000000000000000000000000000000000000815260206004820152603760248201527f4f7074696f6e506f6f6c3a3a696e697469616c697a653a2074696d654265666f60448201527f7265446561644c696e65203e2065787069727954696d6500000000000000000060648201526084016104f9565b600180547fffffffffffffffffffffffff000000000000000000000000000000000000000090811673ffffffffffffffffffffffffffffffffffffffff8e81169182179093556002805483168e851690811790915560038d905560048c905560058b905560068a90556007805484168a861617905560088054909316938816939093179091556040805191825260208201929092529081018a9052606081018990526080810188905260a0810187905230907f83bdbbd2463851b359a1e7449968fb468fb63edf6d856140fb535e9cc53ddaa89060c00160405180910390a2505080156109c857600080547fffffffffffffffffffff00ffffffffffffffffffffffffffffffffffffffffff1690555b505050505050505050565b60005473ffffffffffffffffffffffffffffffffffffffff163314610a54576040517f08c379a000000000000000000000000000000000000000000000000000000000815260206004820181905260248201527f4f776e61626c653a2063616c6c6572206973206e6f7420746865206f776e657260448201526064016104f9565b600655565b60005473ffffffffffffffffffffffffffffffffffffffff163314610ada576040517f08c379a000000000000000000000000000000000000000000000000000000000815260206004820181905260248201527f4f776e61626c653a2063616c6c6572206973206e6f7420746865206f776e657260448201526064016104f9565b610ae46000611abf565b565b60005473ffffffffffffffffffffffffffffffffffffffff163314610b67576040517f08c379a000000000000000000000000000000000000000000000000000000000815260206004820181905260248201527f4f776e61626c653a2063616c6c6572206973206e6f7420746865206f776e657260448201526064016104f9565b60035481808211610bfa576040517f08c379a000000000000000000000000000000000000000000000000000000000815260206004820152603760248201527f4f7074696f6e506f6f6c3a3a696e697469616c697a653a2074696d654265666f60448201527f7265446561644c696e65203e2065787069727954696d6500000000000000000060648201526084016104f9565b5050600555565b336000908152600b602052604081206001810180543093919085908110610c2a57610c2a61243e565b60009182526020909120600690910201600581015490915060ff1615610cd2576040517f08c379a000000000000000000000000000000000000000000000000000000000815260206004820152602660248201527f4f7074696f6e506f6f6c3a3a65786572636973653a20616c726561647920736560448201527f74746c65642e000000000000000000000000000000000000000000000000000060648201526084016104f9565b6005810180547fffffffffffffffffffffffffffffffffffffffffffffffffffffffffffffff0016600117905560038054908201544291610d129161230d565b10610d9f576040517f08c379a000000000000000000000000000000000000000000000000000000000815260206004820152602260248201527f4f7074696f6e506f6f6c3a3a65786572636973653a206e6f742065787069726560448201527f642e00000000000000000000000000000000000000000000000000000000000060648201526084016104f9565b426005546003548360030154610db5919061230d565b610dbf919061230d565b11610e4c576040517f08c379a000000000000000000000000000000000000000000000000000000000815260206004820152602760248201527f4f7074696f6e506f6f6c3a3a65786572636973653a20646561646c696e65207260448201527f6561636865642e0000000000000000000000000000000000000000000000000060648201526084016104f9565b805460098054600090610e6090849061239d565b909155505060095481546002546040517f70a0823100000000000000000000000000000000000000000000000000000000815273ffffffffffffffffffffffffffffffffffffffff8781166004830152610f2094939216906370a082319060240160206040518083038186803b158015610ed957600080fd5b505afa158015610eed573d6000803e3d6000fd5b505050506040513d601f19601f82011682018060405250810190610f119190612138565b610f1b919061239d565b611b34565b600a556007546004828101546040517fee8ca3b50000000000000000000000000000000000000000000000000000000081529182015273ffffffffffffffffffffffffffffffffffffffff9091169063ee8ca3b590602401600060405180830381600087803b158015610f9257600080fd5b505af1158015610fa6573d6000803e3d6000fd5b50506001546040517f70a0823100000000000000000000000000000000000000000000000000000000815273ffffffffffffffffffffffffffffffffffffffff87811660048301526000945090911691506370a082319060240160206040518083038186803b15801561101857600080fd5b505afa15801561102c573d6000803e3d6000fd5b505050506040513d601f19601f820116820180604052508101906110509190612138565b905060006110648360000154600454611b6d565b60015490915061108c9073ffffffffffffffffffffffffffffffffffffffff16338784611b98565b82546002546110b59173ffffffffffffffffffffffffffffffffffffffff909116903390611c7a565b6001546040517f70a0823100000000000000000000000000000000000000000000000000000000815273ffffffffffffffffffffffffffffffffffffffff8781166004830152909116906370a082319060240160206040518083038186803b15801561112057600080fd5b505afa158015611134573d6000803e3d6000fd5b505050506040513d601f19601f820116820180604052508101906111589190612138565b611162828461230d565b1461116f5761116f6123e0565b858573ffffffffffffffffffffffffffffffffffffffff167f605408bbf995c7e81c5895008927eca580ac955d515a5e25fe1a24f38ab71ccd836040516111b891815260200190565b60405180910390a3505050505050565b60005473ffffffffffffffffffffffffffffffffffffffff163314611249576040517f08c379a000000000000000000000000000000000000000000000000000000000815260206004820181905260248201527f4f776e61626c653a2063616c6c6572206973206e6f7420746865206f776e657260448201526064016104f9565b60025461126e9073ffffffffffffffffffffffffffffffffffffffff16333084611b98565b50565b600061128a611284600654600a54611b6d565b83611b6d565b92915050565b73ffffffffffffffffffffffffffffffffffffffff81166000818152600b60209081526040808320815160c08101835287815292830194909452309392919081016112da87611271565b815242602080830191909152600754600854604080516060810182523080825273ffffffffffffffffffffffffffffffffffffffff8c811683880190815260018c8101549486019485528551602481018590529151831660448301529351606480830191909152855180830390910181526084909101855296870180517bffffffffffffffffffffffffffffffffffffffffffffffffffffffff167fd792128300000000000000000000000000000000000000000000000000000000179052915483517fb9f45adb00000000000000000000000000000000000000000000000000000000815293909701969482169563b9f45adb956114089592947f15afd4090000000000000000000000000000000000000000000000000000000094938416939190911690600401612285565b602060405180830381600087803b15801561142257600080fd5b505af1158015611436573d6000803e3d6000fd5b505050506040513d601f19601f8201168201806040525081019061145a9190612138565b81526000602091820181905260018581018054808301825581845284842086516006909202019081559385015191840180547fffffffffffffffffffffffff00000000000000000000000000000000000000001673ffffffffffffffffffffffffffffffffffffffff93841617905560408086015160028087019190915560608701516003870155608087015160048088019190915560a0880151600590970180547fffffffffffffffffffffffffffffffffffffffffffffffffffffffffffffff00169715159790971790965591548855905490517f70a0823100000000000000000000000000000000000000000000000000000000815288831694810194909452939450909216906370a082319060240160206040518083038186803b15801561158557600080fd5b505afa158015611599573d6000803e3d6000fd5b505050506040513d601f19601f820116820180604052508101906115bd9190612138565b905085600960008282546115d1919061230d565b90915550506009546115e39082611b34565b600a55600954811015611678576040517f08c379a000000000000000000000000000000000000000000000000000000000815260206004820152602760248201527f4f7074696f6e506f6f6c3a3a6372656174653a2064656274203e20626173654260448201527f616c616e63652e0000000000000000000000000000000000000000000000000060648201526084016104f9565b6001546040517f70a0823100000000000000000000000000000000000000000000000000000000815273ffffffffffffffffffffffffffffffffffffffff868116600483015260009216906370a082319060240160206040518083038186803b1580156116e457600080fd5b505afa1580156116f8573d6000803e3d6000fd5b505050506040513d601f19601f8201168201806040525081019061171c9190612138565b604084015160015491925061174b9173ffffffffffffffffffffffffffffffffffffffff169033908890611b98565b6001546040517f70a0823100000000000000000000000000000000000000000000000000000000815273ffffffffffffffffffffffffffffffffffffffff8781166004830152909116906370a082319060240160206040518083038186803b1580156117b657600080fd5b505afa1580156117ca573d6000803e3d6000fd5b505050506040513d601f19601f820116820180604052508101906117ee9190612138565b60408401516117fd908361230d565b1461180a5761180a6123e0565b835460015460025460045473ffffffffffffffffffffffffffffffffffffffff808a16937fc76647022316890f154f65d2157a9979f95d8755283e95df588b0690a257b9a593908216929116908c906118639082611b6d565b6040808b0151815173ffffffffffffffffffffffffffffffffffffffff96871681529590941660208601528401919091526060830152608082015260a00160405180910390a350505050505050565b60005473ffffffffffffffffffffffffffffffffffffffff163314611933576040517f08c379a000000000000000000000000000000000000000000000000000000000815260206004820181905260248201527f4f776e61626c653a2063616c6c6572206973206e6f7420746865206f776e657260448201526064016104f9565b73ffffffffffffffffffffffffffffffffffffffff81166119d6576040517f08c379a000000000000000000000000000000000000000000000000000000000815260206004820152602660248201527f4f776e61626c653a206e6577206f776e657220697320746865207a65726f206160448201527f646472657373000000000000000000000000000000000000000000000000000060648201526084016104f9565b61126e81611abf565b6040805160c08101825260008082526020808301829052828401829052606083018290526080830182905260a0830182905273ffffffffffffffffffffffffffffffffffffffff86168252600b905291909120600101805483908110611a4757611a4761243e565b60009182526020918290206040805160c081018252600690930290910180548352600181015473ffffffffffffffffffffffffffffffffffffffff1693830193909352600283015490820152600382015460608201526004820154608082015260059091015460ff16151560a0820152905092915050565b6000805473ffffffffffffffffffffffffffffffffffffffff8381167fffffffffffffffffffffffff0000000000000000000000000000000000000000831681178455604051919092169283917f8be0079c531659141344cd1fd0a4f28419497f9722a3daafe3b4186f6b6457e09190a35050565b600081611b5c611b4c85670de0b6b3a7640000611cd5565b611b57600286612325565b611d5f565b611b669190612325565b9392505050565b6000670de0b6b3a7640000611b5c611b858585611cd5565b611b576002670de0b6b3a7640000612325565b60405173ffffffffffffffffffffffffffffffffffffffff80851660248301528316604482015260648101829052611c749085907f23b872dd00000000000000000000000000000000000000000000000000000000906084015b604080517fffffffffffffffffffffffffffffffffffffffffffffffffffffffffffffffe08184030181529190526020810180517bffffffffffffffffffffffffffffffffffffffffffffffffffffffff167fffffffff0000000000000000000000000000000000000000000000000000000090931692909217909152611dd7565b50505050565b60405173ffffffffffffffffffffffffffffffffffffffff8316602482015260448101829052611cd09084907fa9059cbb0000000000000000000000000000000000000000000000000000000090606401611bf2565b505050565b6000811580611cf957508282611ceb8183612360565b9250611cf79083612325565b145b61128a576040517f08c379a000000000000000000000000000000000000000000000000000000000815260206004820152601460248201527f64732d6d6174682d6d756c2d6f766572666c6f7700000000000000000000000060448201526064016104f9565b600082611d6c838261230d565b915081101561128a576040517f08c379a000000000000000000000000000000000000000000000000000000000815260206004820152601460248201527f64732d6d6174682d6164642d6f766572666c6f7700000000000000000000000060448201526064016104f9565b6000611e39826040518060400160405280602081526020017f5361666545524332303a206c6f772d6c6576656c2063616c6c206661696c65648152508573ffffffffffffffffffffffffffffffffffffffff16611ee39092919063ffffffff16565b805190915015611cd05780806020019051810190611e579190612116565b611cd0576040517f08c379a000000000000000000000000000000000000000000000000000000000815260206004820152602a60248201527f5361666545524332303a204552433230206f7065726174696f6e20646964206e60448201527f6f7420737563636565640000000000000000000000000000000000000000000060648201526084016104f9565b6060611ef28484600085611efa565b949350505050565b606082471015611f8c576040517f08c379a000000000000000000000000000000000000000000000000000000000815260206004820152602660248201527f416464726573733a20696e73756666696369656e742062616c616e636520666f60448201527f722063616c6c000000000000000000000000000000000000000000000000000060648201526084016104f9565b843b611ff4576040517f08c379a000000000000000000000000000000000000000000000000000000000815260206004820152601d60248201527f416464726573733a2063616c6c20746f206e6f6e2d636f6e747261637400000060448201526064016104f9565b6000808673ffffffffffffffffffffffffffffffffffffffff16858760405161201d9190612269565b60006040518083038185875af1925050503d806000811461205a576040519150601f19603f3d011682016040523d82523d6000602084013e61205f565b606091505b509150915061206f82828661207a565b979650505050505050565b60608315612089575081611b66565b8251156120995782518084602001fd5b816040517f08c379a00000000000000000000000000000000000000000000000000000000081526004016104f991906122fa565b6000602082840312156120df57600080fd5b8135611b668161246d565b600080604083850312156120fd57600080fd5b82356121088161246d565b946020939093013593505050565b60006020828403121561212857600080fd5b81518015158114611b6657600080fd5b60006020828403121561214a57600080fd5b5051919050565b600080600080600080600080610100898b03121561216e57600080fd5b88356121798161246d565b975060208901356121898161246d565b965060408901359550606089013594506080890135935060a0890135925060c08901356121b58161246d565b915060e08901356121c58161246d565b809150509295985092959890939650565b6000602082840312156121e857600080fd5b5035919050565b6000806040838503121561220257600080fd5b8235915060208301356122148161246d565b809150509250929050565b600081518084526122378160208601602086016123b4565b601f017fffffffffffffffffffffffffffffffffffffffffffffffffffffffffffffffe0169290920160200192915050565b6000825161227b8184602087016123b4565b9190910192915050565b600073ffffffffffffffffffffffffffffffffffffffff80881683527fffffffff0000000000000000000000000000000000000000000000000000000087166020840152808616604084015260a060608401526122e560a084018661221f565b91508084166080840152509695505050505050565b602081526000611b66602083018461221f565b600082198211156123205761232061240f565b500190565b60008261235b577f4e487b7100000000000000000000000000000000000000000000000000000000600052601260045260246000fd5b500490565b6000817fffffffffffffffffffffffffffffffffffffffffffffffffffffffffffffffff04831182151516156123985761239861240f565b500290565b6000828210156123af576123af61240f565b500390565b60005b838110156123cf5781810151838201526020016123b7565b83811115611c745750506000910152565b7f4e487b7100000000000000000000000000000000000000000000000000000000600052600160045260246000fd5b7f4e487b7100000000000000000000000000000000000000000000000000000000600052601160045260246000fd5b7f4e487b7100000000000000000000000000000000000000000000000000000000600052603260045260246000fd5b73ffffffffffffffffffffffffffffffffffffffff8116811461126e57600080fdfea264697066735822122075aeadc8eb5cb0165fcd9f5e53491d597d70f602565d3de2a4a6e0f4fdbf1b0564736f6c63430008070033a264697066735822122072b589f1785de4598b1aa33e73868382ef0a485ec943b943e8bdf64fba336ec364736f6c63430008070033",
  "devdoc": {
    "kind": "dev",
    "methods": {
      "paused()": {
        "details": "Returns true if the contract is paused, and false otherwise."
      }
    },
    "version": 1
  },
  "userdoc": {
    "kind": "user",
    "methods": {},
    "version": 1
  },
  "storageLayout": {
    "storage": [
      {
        "astId": 5,
        "contract": "contracts/OptionPoolFactory.sol:OptionPoolFactory",
        "label": "_initialized",
        "offset": 0,
        "slot": "0",
        "type": "t_bool"
      },
      {
        "astId": 8,
        "contract": "contracts/OptionPoolFactory.sol:OptionPoolFactory",
        "label": "_initializing",
        "offset": 1,
        "slot": "0",
        "type": "t_bool"
      },
      {
        "astId": 172,
        "contract": "contracts/OptionPoolFactory.sol:OptionPoolFactory",
        "label": "_status",
        "offset": 0,
        "slot": "1",
        "type": "t_uint256"
      },
      {
        "astId": 215,
        "contract": "contracts/OptionPoolFactory.sol:OptionPoolFactory",
        "label": "__gap",
        "offset": 0,
        "slot": "2",
        "type": "t_array(t_uint256)49_storage"
      },
      {
        "astId": 504,
        "contract": "contracts/OptionPoolFactory.sol:OptionPoolFactory",
        "label": "__gap",
        "offset": 0,
        "slot": "51",
        "type": "t_array(t_uint256)50_storage"
      },
      {
        "astId": 66,
        "contract": "contracts/OptionPoolFactory.sol:OptionPoolFactory",
        "label": "_paused",
        "offset": 0,
        "slot": "101",
        "type": "t_bool"
      },
      {
        "astId": 157,
        "contract": "contracts/OptionPoolFactory.sol:OptionPoolFactory",
        "label": "__gap",
        "offset": 0,
        "slot": "102",
        "type": "t_array(t_uint256)49_storage"
      },
      {
        "astId": 2622,
        "contract": "contracts/OptionPoolFactory.sol:OptionPoolFactory",
        "label": "getCallOptions",
        "offset": 0,
        "slot": "151",
        "type": "t_mapping(t_bytes32,t_address)"
      },
      {
        "astId": 2625,
        "contract": "contracts/OptionPoolFactory.sol:OptionPoolFactory",
        "label": "allOptions",
        "offset": 0,
        "slot": "152",
        "type": "t_array(t_address)dyn_storage"
      }
    ],
    "types": {
      "t_address": {
        "encoding": "inplace",
        "label": "address",
        "numberOfBytes": "20"
      },
      "t_array(t_address)dyn_storage": {
        "base": "t_address",
        "encoding": "dynamic_array",
        "label": "address[]",
        "numberOfBytes": "32"
      },
      "t_array(t_uint256)49_storage": {
        "base": "t_uint256",
        "encoding": "inplace",
        "label": "uint256[49]",
        "numberOfBytes": "1568"
      },
      "t_array(t_uint256)50_storage": {
        "base": "t_uint256",
        "encoding": "inplace",
        "label": "uint256[50]",
        "numberOfBytes": "1600"
      },
      "t_bool": {
        "encoding": "inplace",
        "label": "bool",
        "numberOfBytes": "1"
      },
      "t_bytes32": {
        "encoding": "inplace",
        "label": "bytes32",
        "numberOfBytes": "32"
      },
      "t_mapping(t_bytes32,t_address)": {
        "encoding": "mapping",
        "key": "t_bytes32",
        "label": "mapping(bytes32 => address)",
        "numberOfBytes": "32",
        "value": "t_address"
      },
      "t_uint256": {
        "encoding": "inplace",
        "label": "uint256",
        "numberOfBytes": "32"
      }
    }
  }
}