{
  "address": "0xe49875d1501f85c7e61f519097dAaafB6d8A31Fc",
  "abi": [
    {
      "anonymous": false,
      "inputs": [
        {
          "indexed": false,
          "internalType": "bytes32",
          "name": "hash",
          "type": "bytes32"
        },
        {
          "indexed": false,
          "internalType": "address",
          "name": "pool",
          "type": "address"
        },
        {
          "indexed": false,
          "internalType": "address",
          "name": "base",
          "type": "address"
        },
        {
          "indexed": false,
          "internalType": "address",
          "name": "short",
          "type": "address"
        },
        {
          "indexed": false,
          "internalType": "string",
          "name": "optionType",
          "type": "string"
        },
        {
          "indexed": false,
          "internalType": "uint256",
          "name": "liquidity",
          "type": "uint256"
        },
        {
          "indexed": false,
          "internalType": "uint256",
          "name": "bcv",
          "type": "uint256"
        },
        {
          "indexed": false,
          "internalType": "uint256",
          "name": "strike",
          "type": "uint256"
        },
        {
          "indexed": false,
          "internalType": "uint256",
          "name": "maturity",
          "type": "uint256"
        }
      ],
      "name": "LogOptionPoolCreation",
      "type": "event"
    },
    {
      "inputs": [
        {
          "internalType": "address",
          "name": "base_",
          "type": "address"
        },
        {
          "internalType": "address",
          "name": "short_",
          "type": "address"
        },
        {
          "internalType": "string",
          "name": "optionType_",
          "type": "string"
        },
        {
          "internalType": "uint256",
          "name": "liquidity_",
          "type": "uint256"
        },
        {
          "internalType": "uint256",
          "name": "bcv_",
          "type": "uint256"
        },
        {
          "internalType": "uint256",
          "name": "strike_",
          "type": "uint256"
        },
        {
          "internalType": "uint256",
          "name": "maturity_",
          "type": "uint256"
        }
      ],
      "name": "createOptionPool",
      "outputs": [],
      "stateMutability": "nonpayable",
      "type": "function"
    },
    {
      "inputs": [
        {
          "internalType": "bytes32",
          "name": "",
          "type": "bytes32"
        }
      ],
      "name": "optionPools",
      "outputs": [
        {
          "internalType": "address",
          "name": "",
          "type": "address"
        }
      ],
      "stateMutability": "view",
      "type": "function"
    }
  ],
  "transactionHash": "0x2d93d82da9135c5a81837186f525fa85cc04b5eeb665932e3b6a0650ede18fb3",
  "args": [],
  "solcInputHash": "51e2aeeab16544c5369828427226b3dd",
  "bytecode": "0x608060405234801561001057600080fd5b506122b8806100206000396000f3fe60806040523480156200001157600080fd5b50600436106200003a5760003560e01c8063b7b80bf6146200003f578063e29c18b214620000a1575b600080fd5b620000786200005036600462000886565b60006020819052908152604090205473ffffffffffffffffffffffffffffffffffffffff1681565b60405173ffffffffffffffffffffffffffffffffffffffff909116815260200160405180910390f35b620000b8620000b23660046200073f565b620000ba565b005b600087878787878787604051620000d19062000707565b620000e3979695949392919062000976565b604051809103906000f08015801562000100573d6000803e3d6000fd5b50905060008189898989898989604051602001620001269897969594939291906200090a565b604080517fffffffffffffffffffffffffffffffffffffffffffffffffffffffffffffffe0818403018152919052805160209091012090506200018273ffffffffffffffffffffffffffffffffffffffff8a16333089620002b2565b620001a573ffffffffffffffffffffffffffffffffffffffff8a16838862000396565b6000818152602081905260409081902080547fffffffffffffffffffffffff00000000000000000000000000000000000000001673ffffffffffffffffffffffffffffffffffffffff851690811790915590517ff2fde38b00000000000000000000000000000000000000000000000000000000815233600482015263f2fde38b90602401600060405180830381600087803b1580156200024557600080fd5b505af11580156200025a573d6000803e3d6000fd5b505050507f569fde490d7c9c5113f462cbaa5f0431916db1c0cad0bafd411daa917b20f40b81838b8b8b8b8b8b8b6040516200029f99989796959493929190620009d7565b60405180910390a1505050505050505050565b60405173ffffffffffffffffffffffffffffffffffffffff80851660248301528316604482015260648101829052620003909085907f23b872dd00000000000000000000000000000000000000000000000000000000906084015b604080517fffffffffffffffffffffffffffffffffffffffffffffffffffffffffffffffe08184030181529190526020810180517bffffffffffffffffffffffffffffffffffffffffffffffffffffffff167fffffffff0000000000000000000000000000000000000000000000000000000090931692909217909152620003f3565b50505050565b60405173ffffffffffffffffffffffffffffffffffffffff8316602482015260448101829052620003ee9084907fa9059cbb00000000000000000000000000000000000000000000000000000000906064016200030d565b505050565b600062000457826040518060400160405280602081526020017f5361666545524332303a206c6f772d6c6576656c2063616c6c206661696c65648152508573ffffffffffffffffffffffffffffffffffffffff166200050a9092919063ffffffff16565b805190915015620003ee578080602001905181019062000478919062000862565b620003ee576040517f08c379a000000000000000000000000000000000000000000000000000000000815260206004820152602a60248201527f5361666545524332303a204552433230206f7065726174696f6e20646964206e60448201527f6f7420737563636565640000000000000000000000000000000000000000000060648201526084015b60405180910390fd5b60606200051b848460008562000525565b90505b9392505050565b606082471015620005b9576040517f08c379a000000000000000000000000000000000000000000000000000000000815260206004820152602660248201527f416464726573733a20696e73756666696369656e742062616c616e636520666f60448201527f722063616c6c0000000000000000000000000000000000000000000000000000606482015260840162000501565b843b62000623576040517f08c379a000000000000000000000000000000000000000000000000000000000815260206004820152601d60248201527f416464726573733a2063616c6c20746f206e6f6e2d636f6e7472616374000000604482015260640162000501565b6000808673ffffffffffffffffffffffffffffffffffffffff1685876040516200064e9190620008ec565b60006040518083038185875af1925050503d80600081146200068d576040519150601f19603f3d011682016040523d82523d6000602084013e62000692565b606091505b5091509150620006a4828286620006af565b979650505050505050565b60608315620006c05750816200051e565b825115620006d15782518084602001fd5b816040517f08c379a000000000000000000000000000000000000000000000000000000000815260040162000501919062000a4b565b6117c48062000abf83390190565b803573ffffffffffffffffffffffffffffffffffffffff811681146200073a57600080fd5b919050565b600080600080600080600060e0888a0312156200075b57600080fd5b620007668862000715565b9650620007766020890162000715565b9550604088013567ffffffffffffffff808211156200079457600080fd5b818a0191508a601f830112620007a957600080fd5b813581811115620007be57620007be62000a8f565b604051601f82017fffffffffffffffffffffffffffffffffffffffffffffffffffffffffffffffe0908116603f0116810190838211818310171562000807576200080762000a8f565b816040528281528d60208487010111156200082157600080fd5b8260208601602083013760009281016020019290925250989b979a5097986060810135985060808101359760a0820135975060c09091013595509350505050565b6000602082840312156200087557600080fd5b815180151581146200051e57600080fd5b6000602082840312156200089957600080fd5b5035919050565b60008151808452620008ba81602086016020860162000a60565b601f017fffffffffffffffffffffffffffffffffffffffffffffffffffffffffffffffe0169290920160200192915050565b600082516200090081846020870162000a60565b9190910192915050565b600061010073ffffffffffffffffffffffffffffffffffffffff808c168452808b166020850152808a166040850152508060608401526200094e81840189620008a0565b9150508560808301528460a08301528360c08301528260e08301529998505050505050505050565b600073ffffffffffffffffffffffffffffffffffffffff808a16835280891660208401525060e06040830152620009b160e0830188620008a0565b90508560608301528460808301528360a08301528260c083015298975050505050505050565b60006101208b835273ffffffffffffffffffffffffffffffffffffffff808c166020850152808b166040850152808a1660608501525080608084015262000a2181840189620008a0565b9150508560a08301528460c08301528360e0830152826101008301529a9950505050505050505050565b6020815260006200051e6020830184620008a0565b60005b8381101562000a7d57818101518382015260200162000a63565b83811115620003905750506000910152565b7f4e487b7100000000000000000000000000000000000000000000000000000000600052604160045260246000fdfe6101406040523480156200001257600080fd5b50604051620017c4380380620017c48339810160408190526200003591620001a1565b62000040336200008e565b6001600160601b0319606088811b821660805287901b1660a05284516200006f906001906020880190620000de565b5060c09390935260e0919091526101005261012052506200031f915050565b600080546001600160a01b038381166001600160a01b0319831681178455604051919092169283917f8be0079c531659141344cd1fd0a4f28419497f9722a3daafe3b4186f6b6457e09190a35050565b828054620000ec90620002cc565b90600052602060002090601f0160209004810192826200011057600085556200015b565b82601f106200012b57805160ff19168380011785556200015b565b828001600101855582156200015b579182015b828111156200015b5782518255916020019190600101906200013e565b50620001699291506200016d565b5090565b5b808211156200016957600081556001016200016e565b80516001600160a01b03811681146200019c57600080fd5b919050565b600080600080600080600060e0888a031215620001bd57600080fd5b620001c88862000184565b96506020620001d9818a0162000184565b60408a01519097506001600160401b0380821115620001f757600080fd5b818b0191508b601f8301126200020c57600080fd5b81518181111562000221576200022162000309565b604051601f8201601f19908116603f011681019083821181831017156200024c576200024c62000309565b816040528281528e868487010111156200026557600080fd5b600093505b828410156200028957848401860151818501870152928501926200026a565b828411156200029b5760008684830101525b809a50505050505050606088015193506080880151925060a0880151915060c0880151905092959891949750929550565b600181811c90821680620002e157607f821691505b602082108114156200030357634e487b7160e01b600052602260045260246000fd5b50919050565b634e487b7160e01b600052604160045260246000fd5b60805160601c60a05160601c60c05160e0516101005161012051611409620003bb60003960008181610162015261041301526000818161025c015281816102ea015261092f01526000818161023501526109610152600061013b01526000818161018901528181610484015261075c0152600081816101d50152818161035d01528181610628015281816107f0015261089601526114096000f3fe608060405234801561001057600080fd5b50600436106101005760003560e01c80638da5cb5b11610097578063cea55f5711610066578063cea55f5714610291578063e75722301461029a578063f2fde38b146102ad578063ffd9eedb146102c057600080fd5b80638da5cb5b1461021257806397cae24d14610230578063ad8f500814610257578063b07f0a411461027e57600080fd5b806338bea4cb116100d357806338bea4cb146101845780635001f3b5146101d057806351c6590a146101f7578063715018a61461020a57600080fd5b80630ae6feae146101055780630dca59c11461011a5780631a68650214610136578063204f83f91461015d575b600080fd5b6101186101133660046111af565b6102d5565b005b61012360025481565b6040519081526020015b60405180910390f35b6101237f000000000000000000000000000000000000000000000000000000000000000081565b6101237f000000000000000000000000000000000000000000000000000000000000000081565b6101ab7f000000000000000000000000000000000000000000000000000000000000000081565b60405173ffffffffffffffffffffffffffffffffffffffff909116815260200161012d565b6101ab7f000000000000000000000000000000000000000000000000000000000000000081565b6101186102053660046111af565b610588565b610118610653565b60005473ffffffffffffffffffffffffffffffffffffffff166101ab565b6101237f000000000000000000000000000000000000000000000000000000000000000081565b6101237f000000000000000000000000000000000000000000000000000000000000000081565b61011861028c3660046111af565b6106e0565b61012360035481565b6101236102a83660046111af565b61091b565b6101186102bb366004611157565b61098e565b6102c8610abb565b60405161012d91906111fd565b60006102e08261091b565b9050600061030e837f0000000000000000000000000000000000000000000000000000000000000000610b49565b90508060026000828254610322919061124e565b90915550506002546040517f70a082310000000000000000000000000000000000000000000000000000000081523060048201526103f291907f000000000000000000000000000000000000000000000000000000000000000073ffffffffffffffffffffffffffffffffffffffff16906370a08231906024015b60206040518083038186803b1580156103b557600080fd5b505afa1580156103c9573d6000803e3d6000fd5b505050506040513d601f19601f820116820180604052508101906103ed91906111c8565b610b8a565b600355604080516060810182528281526020810185905260009181016104387f00000000000000000000000000000000000000000000000000000000000000004261124e565b905233600081815260046020908152604080832080546001818101835591855293839020865160039095020193845591850151918301919091558301516002909101559091506104c1907f000000000000000000000000000000000000000000000000000000000000000073ffffffffffffffffffffffffffffffffffffffff16903086610bad565b3360009081526004602052604090205430906104df906001906112de565b336000908152600460205260409020546104fb906001906112de565b6040805160208101929092523090820152606001604080517fffffffffffffffffffffffffffffffffffffffffffffffffffffffffffffffe08184030181528282528051602091820120338452908301879052908201889052907f44bbcd6a66787ed46c240d9ea822cf5bedc7fca403e5e4e0609e3d98a9181d2f9060600160405180910390a450505050565b60005473ffffffffffffffffffffffffffffffffffffffff16331461060e576040517f08c379a000000000000000000000000000000000000000000000000000000000815260206004820181905260248201527f4f776e61626c653a2063616c6c6572206973206e6f7420746865206f776e657260448201526064015b60405180910390fd5b61065073ffffffffffffffffffffffffffffffffffffffff7f000000000000000000000000000000000000000000000000000000000000000016333084610bad565b50565b60005473ffffffffffffffffffffffffffffffffffffffff1633146106d4576040517f08c379a000000000000000000000000000000000000000000000000000000000815260206004820181905260248201527f4f776e61626c653a2063616c6c6572206973206e6f7420746865206f776e65726044820152606401610605565b6106de6000610c8f565b565b336000908152600460205260409020805442919083908110610704576107046113a4565b9060005260206000209060030201600201541061072057600080fd5b33600081815260046020526040902080546107a19291309185908110610748576107486113a4565b9060005260206000209060030201600101547f000000000000000000000000000000000000000000000000000000000000000073ffffffffffffffffffffffffffffffffffffffff16610bad909392919063ffffffff16565b3360008181526004602052604090208054610817929190849081106107c8576107c86113a4565b600091825260209091206003909102015473ffffffffffffffffffffffffffffffffffffffff7f0000000000000000000000000000000000000000000000000000000000000000169190610d04565b336000908152600460205260409020805482908110610838576108386113a4565b9060005260206000209060030201600001546002600082825461085b91906112de565b90915550506002546040517f70a082310000000000000000000000000000000000000000000000000000000081523060048201526108da91907f000000000000000000000000000000000000000000000000000000000000000073ffffffffffffffffffffffffffffffffffffffff16906370a082319060240161039d565b600355604080513381526020810183905230917fff8d769f6fe2c82f97636aa2cdd9c9034d152690aeb1a058ae81e4cf20bc5bf3910160405180910390a250565b60006003546000141561095957610953600a7f0000000000000000000000000000000000000000000000000000000000000000611266565b92915050565b6109536109887f0000000000000000000000000000000000000000000000000000000000000000600354610b49565b83610b49565b60005473ffffffffffffffffffffffffffffffffffffffff163314610a0f576040517f08c379a000000000000000000000000000000000000000000000000000000000815260206004820181905260248201527f4f776e61626c653a2063616c6c6572206973206e6f7420746865206f776e65726044820152606401610605565b73ffffffffffffffffffffffffffffffffffffffff8116610ab2576040517f08c379a000000000000000000000000000000000000000000000000000000000815260206004820152602660248201527f4f776e61626c653a206e6577206f776e657220697320746865207a65726f206160448201527f64647265737300000000000000000000000000000000000000000000000000006064820152608401610605565b61065081610c8f565b60018054610ac890611321565b80601f0160208091040260200160405190810160405280929190818152602001828054610af490611321565b8015610b415780601f10610b1657610100808354040283529160200191610b41565b820191906000526020600020905b815481529060010190602001808311610b2457829003601f168201915b505050505081565b6000670de0b6b3a7640000610b79610b618585610d5f565b610b746002670de0b6b3a7640000611266565b610de9565b610b839190611266565b9392505050565b600081610b79610ba285670de0b6b3a7640000610d5f565b610b74600286611266565b60405173ffffffffffffffffffffffffffffffffffffffff80851660248301528316604482015260648101829052610c899085907f23b872dd00000000000000000000000000000000000000000000000000000000906084015b604080517fffffffffffffffffffffffffffffffffffffffffffffffffffffffffffffffe08184030181529190526020810180517bffffffffffffffffffffffffffffffffffffffffffffffffffffffff167fffffffff0000000000000000000000000000000000000000000000000000000090931692909217909152610e61565b50505050565b6000805473ffffffffffffffffffffffffffffffffffffffff8381167fffffffffffffffffffffffff0000000000000000000000000000000000000000831681178455604051919092169283917f8be0079c531659141344cd1fd0a4f28419497f9722a3daafe3b4186f6b6457e09190a35050565b60405173ffffffffffffffffffffffffffffffffffffffff8316602482015260448101829052610d5a9084907fa9059cbb0000000000000000000000000000000000000000000000000000000090606401610c07565b505050565b6000811580610d8357508282610d7581836112a1565b9250610d819083611266565b145b610953576040517f08c379a000000000000000000000000000000000000000000000000000000000815260206004820152601460248201527f64732d6d6174682d6d756c2d6f766572666c6f770000000000000000000000006044820152606401610605565b600082610df6838261124e565b9150811015610953576040517f08c379a000000000000000000000000000000000000000000000000000000000815260206004820152601460248201527f64732d6d6174682d6164642d6f766572666c6f770000000000000000000000006044820152606401610605565b6000610ec3826040518060400160405280602081526020017f5361666545524332303a206c6f772d6c6576656c2063616c6c206661696c65648152508573ffffffffffffffffffffffffffffffffffffffff16610f6d9092919063ffffffff16565b805190915015610d5a5780806020019051810190610ee1919061118d565b610d5a576040517f08c379a000000000000000000000000000000000000000000000000000000000815260206004820152602a60248201527f5361666545524332303a204552433230206f7065726174696f6e20646964206e60448201527f6f742073756363656564000000000000000000000000000000000000000000006064820152608401610605565b6060610f7c8484600085610f84565b949350505050565b606082471015611016576040517f08c379a000000000000000000000000000000000000000000000000000000000815260206004820152602660248201527f416464726573733a20696e73756666696369656e742062616c616e636520666f60448201527f722063616c6c00000000000000000000000000000000000000000000000000006064820152608401610605565b843b61107e576040517f08c379a000000000000000000000000000000000000000000000000000000000815260206004820152601d60248201527f416464726573733a2063616c6c20746f206e6f6e2d636f6e74726163740000006044820152606401610605565b6000808673ffffffffffffffffffffffffffffffffffffffff1685876040516110a791906111e1565b60006040518083038185875af1925050503d80600081146110e4576040519150601f19603f3d011682016040523d82523d6000602084013e6110e9565b606091505b50915091506110f9828286611104565b979650505050505050565b60608315611113575081610b83565b8251156111235782518084602001fd5b816040517f08c379a000000000000000000000000000000000000000000000000000000000815260040161060591906111fd565b60006020828403121561116957600080fd5b813573ffffffffffffffffffffffffffffffffffffffff81168114610b8357600080fd5b60006020828403121561119f57600080fd5b81518015158114610b8357600080fd5b6000602082840312156111c157600080fd5b5035919050565b6000602082840312156111da57600080fd5b5051919050565b600082516111f38184602087016112f5565b9190910192915050565b602081526000825180602084015261121c8160408501602087016112f5565b601f017fffffffffffffffffffffffffffffffffffffffffffffffffffffffffffffffe0169190910160400192915050565b6000821982111561126157611261611375565b500190565b60008261129c577f4e487b7100000000000000000000000000000000000000000000000000000000600052601260045260246000fd5b500490565b6000817fffffffffffffffffffffffffffffffffffffffffffffffffffffffffffffffff04831182151516156112d9576112d9611375565b500290565b6000828210156112f0576112f0611375565b500390565b60005b838110156113105781810151838201526020016112f8565b83811115610c895750506000910152565b600181811c9082168061133557607f821691505b6020821081141561136f577f4e487b7100000000000000000000000000000000000000000000000000000000600052602260045260246000fd5b50919050565b7f4e487b7100000000000000000000000000000000000000000000000000000000600052601160045260246000fd5b7f4e487b7100000000000000000000000000000000000000000000000000000000600052603260045260246000fdfea2646970667358221220df48cf4ebd5a20fa47c6738ecefeeb082015be1124f84226d15161273819603a64736f6c63430008070033a2646970667358221220552b38c8f638b976b4d8702941ed3454e830de5664cef0f20fd7ee43973b610b64736f6c63430008070033",
  "devdoc": {
    "kind": "dev",
    "methods": {},
    "version": 1
  },
  "userdoc": {
    "kind": "user",
    "methods": {},
    "version": 1
  },
  "storageLayout": {
    "storage": [
      {
        "astId": 2054,
        "contract": "contracts/__mocks__/OptionPoolFactoryMock.sol:OptionPoolFactoryMock",
        "label": "optionPools",
        "offset": 0,
        "slot": "0",
        "type": "t_mapping(t_bytes32,t_address)"
      }
    ],
    "types": {
      "t_address": {
        "encoding": "inplace",
        "label": "address",
        "numberOfBytes": "20"
      },
      "t_bytes32": {
        "encoding": "inplace",
        "label": "bytes32",
        "numberOfBytes": "32"
      },
      "t_mapping(t_bytes32,t_address)": {
        "encoding": "mapping",
        "key": "t_bytes32",
        "label": "mapping(bytes32 => address)",
        "numberOfBytes": "32",
        "value": "t_address"
      }
    }
  }
}