{
  "address": "0x60a4Bd2d9AB9Ec51D61eC1CE93Ab35aC521Bea65",
  "abi": [
    {
      "anonymous": false,
      "inputs": [
        {
          "indexed": false,
          "internalType": "address",
          "name": "pool",
          "type": "address"
        },
        {
          "indexed": false,
          "internalType": "address",
          "name": "base",
          "type": "address"
        },
        {
          "indexed": false,
          "internalType": "address",
          "name": "short",
          "type": "address"
        },
        {
          "indexed": false,
          "internalType": "string",
          "name": "optionType",
          "type": "string"
        },
        {
          "indexed": false,
          "internalType": "uint256",
          "name": "liquidity",
          "type": "uint256"
        },
        {
          "indexed": false,
          "internalType": "uint256",
          "name": "bcv",
          "type": "uint256"
        },
        {
          "indexed": false,
          "internalType": "uint256",
          "name": "strike",
          "type": "uint256"
        },
        {
          "indexed": false,
          "internalType": "uint256",
          "name": "maturity",
          "type": "uint256"
        }
      ],
      "name": "LogOptionPoolCreation",
      "type": "event"
    },
    {
      "inputs": [
        {
          "internalType": "address",
          "name": "base_",
          "type": "address"
        },
        {
          "internalType": "address",
          "name": "short_",
          "type": "address"
        },
        {
          "internalType": "string",
          "name": "optionType_",
          "type": "string"
        },
        {
          "internalType": "uint256",
          "name": "liquidity_",
          "type": "uint256"
        },
        {
          "internalType": "uint256",
          "name": "bcv_",
          "type": "uint256"
        },
        {
          "internalType": "uint256",
          "name": "strike_",
          "type": "uint256"
        },
        {
          "internalType": "uint256",
          "name": "maturity_",
          "type": "uint256"
        }
      ],
      "name": "createOptionPool",
      "outputs": [],
      "stateMutability": "nonpayable",
      "type": "function"
    },
    {
      "inputs": [
        {
          "internalType": "bytes32",
          "name": "",
          "type": "bytes32"
        }
      ],
      "name": "optionPools",
      "outputs": [
        {
          "internalType": "address",
          "name": "",
          "type": "address"
        }
      ],
      "stateMutability": "view",
      "type": "function"
    }
  ],
  "transactionHash": "0x2dfc558081df87fe89988860bc87b017a3a5106309e350992d3d1a7b436aba0e",
  "args": [],
  "solcInputHash": "4775147b06ab2bd137c5e8bf8a224b09",
  "bytecode": "0x608060405234801561001057600080fd5b50611c20806100206000396000f3fe608060405234801561001057600080fd5b50600436106100365760003560e01c8063b7b80bf61461003b578063e29c18b21461009a575b600080fd5b610071610049366004610355565b60006020819052908152604090205473ffffffffffffffffffffffffffffffffffffffff1681565b60405173ffffffffffffffffffffffffffffffffffffffff909116815260200160405180910390f35b6100ad6100a8366004610240565b6100af565b005b6000878787878787876040516100c49061020a565b6100d49796959493929190610443565b604051809103906000f0801580156100f0573d6000803e3d6000fd5b509050600081898989898989896040516020016101149897969594939291906103d9565b604080518083037fffffffffffffffffffffffffffffffffffffffffffffffffffffffffffffffe0018152828252805160209182012060008181529182905291902080547fffffffffffffffffffffffff00000000000000000000000000000000000000001673ffffffffffffffffffffffffffffffffffffffff86169081179091557ff2fde38b0000000000000000000000000000000000000000000000000000000083523360048401529092509063f2fde38b90602401600060405180830381600087803b1580156101e757600080fd5b505af11580156101fb573d6000803e3d6000fd5b50505050505050505050505050565b611719806104d283390190565b803573ffffffffffffffffffffffffffffffffffffffff8116811461023b57600080fd5b919050565b600080600080600080600060e0888a03121561025b57600080fd5b61026488610217565b965061027260208901610217565b9550604088013567ffffffffffffffff8082111561028f57600080fd5b818a0191508a601f8301126102a357600080fd5b8135818111156102b5576102b56104a2565b604051601f82017fffffffffffffffffffffffffffffffffffffffffffffffffffffffffffffffe0908116603f011681019083821181831017156102fb576102fb6104a2565b816040528281528d602084870101111561031457600080fd5b8260208601602083013760009281016020019290925250989b979a5097986060810135985060808101359760a0820135975060c09091013595509350505050565b60006020828403121561036757600080fd5b5035919050565b6000815180845260005b8181101561039457602081850181015186830182015201610378565b818111156103a6576000602083870101525b50601f017fffffffffffffffffffffffffffffffffffffffffffffffffffffffffffffffe0169290920160200192915050565b600061010073ffffffffffffffffffffffffffffffffffffffff808c168452808b166020850152808a1660408501525080606084015261041b8184018961036e565b9150508560808301528460a08301528360c08301528260e08301529998505050505050505050565b600073ffffffffffffffffffffffffffffffffffffffff808a16835280891660208401525060e0604083015261047c60e083018861036e565b90508560608301528460808301528360a08301528260c083015298975050505050505050565b7f4e487b7100000000000000000000000000000000000000000000000000000000600052604160045260246000fdfe6101406040523480156200001257600080fd5b5060405162001719380380620017198339810160408190526200003591620001a1565b62000040336200008e565b6001600160601b0319606088811b821660805287901b1660a05284516200006f906001906020880190620000de565b5060c09390935260e0919091526101005261012052506200031f915050565b600080546001600160a01b038381166001600160a01b0319831681178455604051919092169283917f8be0079c531659141344cd1fd0a4f28419497f9722a3daafe3b4186f6b6457e09190a35050565b828054620000ec90620002cc565b90600052602060002090601f0160209004810192826200011057600085556200015b565b82601f106200012b57805160ff19168380011785556200015b565b828001600101855582156200015b579182015b828111156200015b5782518255916020019190600101906200013e565b50620001699291506200016d565b5090565b5b808211156200016957600081556001016200016e565b80516001600160a01b03811681146200019c57600080fd5b919050565b600080600080600080600060e0888a031215620001bd57600080fd5b620001c88862000184565b96506020620001d9818a0162000184565b60408a01519097506001600160401b0380821115620001f757600080fd5b818b0191508b601f8301126200020c57600080fd5b81518181111562000221576200022162000309565b604051601f8201601f19908116603f011681019083821181831017156200024c576200024c62000309565b816040528281528e868487010111156200026557600080fd5b600093505b828410156200028957848401860151818501870152928501926200026a565b828411156200029b5760008684830101525b809a50505050505050606088015193506080880151925060a0880151915060c0880151905092959891949750929550565b600181811c90821680620002e157607f821691505b602082108114156200030357634e487b7160e01b600052602260045260246000fd5b50919050565b634e487b7160e01b600052604160045260246000fd5b60805160601c60a05160601c60c05160e0516101005161012051611365620003b460003960008181610162015261041301526000818161025c01526102ea01526000818161023501526108b70152600061013b0152600081816101890152818161048401526106f20152600081816101d50152818161035d015281816105be01528181610786015261082c01526113656000f3fe608060405234801561001057600080fd5b50600436106101005760003560e01c80638da5cb5b11610097578063cea55f5711610066578063cea55f5714610291578063e75722301461029a578063f2fde38b146102ad578063ffd9eedb146102c057600080fd5b80638da5cb5b1461021257806397cae24d14610230578063ad8f500814610257578063b07f0a411461027e57600080fd5b806338bea4cb116100d357806338bea4cb146101845780635001f3b5146101d057806351c6590a146101f7578063715018a61461020a57600080fd5b80630ae6feae146101055780630dca59c11461011a5780631a68650214610136578063204f83f91461015d575b600080fd5b61011861011336600461110b565b6102d5565b005b61012360025481565b6040519081526020015b60405180910390f35b6101237f000000000000000000000000000000000000000000000000000000000000000081565b6101237f000000000000000000000000000000000000000000000000000000000000000081565b6101ab7f000000000000000000000000000000000000000000000000000000000000000081565b60405173ffffffffffffffffffffffffffffffffffffffff909116815260200161012d565b6101ab7f000000000000000000000000000000000000000000000000000000000000000081565b61011861020536600461110b565b61051e565b6101186105e9565b60005473ffffffffffffffffffffffffffffffffffffffff166101ab565b6101237f000000000000000000000000000000000000000000000000000000000000000081565b6101237f000000000000000000000000000000000000000000000000000000000000000081565b61011861028c36600461110b565b610676565b61012360035481565b6101236102a836600461110b565b6108ad565b6101186102bb3660046110b3565b6108ea565b6102c8610a17565b60405161012d9190611159565b60006102e0826108ad565b9050600061030e837f0000000000000000000000000000000000000000000000000000000000000000610aa5565b9050806002600082825461032291906111aa565b90915550506002546040517f70a082310000000000000000000000000000000000000000000000000000000081523060048201526103f291907f000000000000000000000000000000000000000000000000000000000000000073ffffffffffffffffffffffffffffffffffffffff16906370a08231906024015b60206040518083038186803b1580156103b557600080fd5b505afa1580156103c9573d6000803e3d6000fd5b505050506040513d601f19601f820116820180604052508101906103ed9190611124565b610ae6565b600355604080516060810182528281526020810185905260009181016104387f0000000000000000000000000000000000000000000000000000000000000000426111aa565b905233600081815260046020908152604080832080546001818101835591855293839020865160039095020193845591850151918301919091558301516002909101559091506104c1907f000000000000000000000000000000000000000000000000000000000000000073ffffffffffffffffffffffffffffffffffffffff16903086610b09565b3360009081526004602052604090205430906104df9060019061123a565b60408051858152602081018890527f78fab6325920535fc4f493205e3aea197abdc7049e9fbfb5e4ae92027ce3dc65910160405180910390a350505050565b60005473ffffffffffffffffffffffffffffffffffffffff1633146105a4576040517f08c379a000000000000000000000000000000000000000000000000000000000815260206004820181905260248201527f4f776e61626c653a2063616c6c6572206973206e6f7420746865206f776e657260448201526064015b60405180910390fd5b6105e673ffffffffffffffffffffffffffffffffffffffff7f000000000000000000000000000000000000000000000000000000000000000016333084610b09565b50565b60005473ffffffffffffffffffffffffffffffffffffffff16331461066a576040517f08c379a000000000000000000000000000000000000000000000000000000000815260206004820181905260248201527f4f776e61626c653a2063616c6c6572206973206e6f7420746865206f776e6572604482015260640161059b565b6106746000610beb565b565b33600090815260046020526040902080544291908390811061069a5761069a611300565b906000526020600020906003020160020154106106b657600080fd5b336000818152600460205260409020805461073792913091859081106106de576106de611300565b9060005260206000209060030201600101547f000000000000000000000000000000000000000000000000000000000000000073ffffffffffffffffffffffffffffffffffffffff16610b09909392919063ffffffff16565b33600081815260046020526040902080546107ad9291908490811061075e5761075e611300565b600091825260209091206003909102015473ffffffffffffffffffffffffffffffffffffffff7f0000000000000000000000000000000000000000000000000000000000000000169190610c60565b3360009081526004602052604090208054829081106107ce576107ce611300565b906000526020600020906003020160000154600260008282546107f191906111aa565b90915550506002546040517f70a0823100000000000000000000000000000000000000000000000000000000815230600482015261087091907f000000000000000000000000000000000000000000000000000000000000000073ffffffffffffffffffffffffffffffffffffffff16906370a082319060240161039d565b600355604051818152339030907fff8d769f6fe2c82f97636aa2cdd9c9034d152690aeb1a058ae81e4cf20bc5bf39060200160405180910390a350565b60006108e46108de7f0000000000000000000000000000000000000000000000000000000000000000600354610aa5565b83610aa5565b92915050565b60005473ffffffffffffffffffffffffffffffffffffffff16331461096b576040517f08c379a000000000000000000000000000000000000000000000000000000000815260206004820181905260248201527f4f776e61626c653a2063616c6c6572206973206e6f7420746865206f776e6572604482015260640161059b565b73ffffffffffffffffffffffffffffffffffffffff8116610a0e576040517f08c379a000000000000000000000000000000000000000000000000000000000815260206004820152602660248201527f4f776e61626c653a206e6577206f776e657220697320746865207a65726f206160448201527f6464726573730000000000000000000000000000000000000000000000000000606482015260840161059b565b6105e681610beb565b60018054610a249061127d565b80601f0160208091040260200160405190810160405280929190818152602001828054610a509061127d565b8015610a9d5780601f10610a7257610100808354040283529160200191610a9d565b820191906000526020600020905b815481529060010190602001808311610a8057829003601f168201915b505050505081565b6000670de0b6b3a7640000610ad5610abd8585610cbb565b610ad06002670de0b6b3a76400006111c2565b610d45565b610adf91906111c2565b9392505050565b600081610ad5610afe85670de0b6b3a7640000610cbb565b610ad06002866111c2565b60405173ffffffffffffffffffffffffffffffffffffffff80851660248301528316604482015260648101829052610be59085907f23b872dd00000000000000000000000000000000000000000000000000000000906084015b604080517fffffffffffffffffffffffffffffffffffffffffffffffffffffffffffffffe08184030181529190526020810180517bffffffffffffffffffffffffffffffffffffffffffffffffffffffff167fffffffff0000000000000000000000000000000000000000000000000000000090931692909217909152610dbd565b50505050565b6000805473ffffffffffffffffffffffffffffffffffffffff8381167fffffffffffffffffffffffff0000000000000000000000000000000000000000831681178455604051919092169283917f8be0079c531659141344cd1fd0a4f28419497f9722a3daafe3b4186f6b6457e09190a35050565b60405173ffffffffffffffffffffffffffffffffffffffff8316602482015260448101829052610cb69084907fa9059cbb0000000000000000000000000000000000000000000000000000000090606401610b63565b505050565b6000811580610cdf57508282610cd181836111fd565b9250610cdd90836111c2565b145b6108e4576040517f08c379a000000000000000000000000000000000000000000000000000000000815260206004820152601460248201527f64732d6d6174682d6d756c2d6f766572666c6f77000000000000000000000000604482015260640161059b565b600082610d5283826111aa565b91508110156108e4576040517f08c379a000000000000000000000000000000000000000000000000000000000815260206004820152601460248201527f64732d6d6174682d6164642d6f766572666c6f77000000000000000000000000604482015260640161059b565b6000610e1f826040518060400160405280602081526020017f5361666545524332303a206c6f772d6c6576656c2063616c6c206661696c65648152508573ffffffffffffffffffffffffffffffffffffffff16610ec99092919063ffffffff16565b805190915015610cb65780806020019051810190610e3d91906110e9565b610cb6576040517f08c379a000000000000000000000000000000000000000000000000000000000815260206004820152602a60248201527f5361666545524332303a204552433230206f7065726174696f6e20646964206e60448201527f6f74207375636365656400000000000000000000000000000000000000000000606482015260840161059b565b6060610ed88484600085610ee0565b949350505050565b606082471015610f72576040517f08c379a000000000000000000000000000000000000000000000000000000000815260206004820152602660248201527f416464726573733a20696e73756666696369656e742062616c616e636520666f60448201527f722063616c6c0000000000000000000000000000000000000000000000000000606482015260840161059b565b843b610fda576040517f08c379a000000000000000000000000000000000000000000000000000000000815260206004820152601d60248201527f416464726573733a2063616c6c20746f206e6f6e2d636f6e7472616374000000604482015260640161059b565b6000808673ffffffffffffffffffffffffffffffffffffffff168587604051611003919061113d565b60006040518083038185875af1925050503d8060008114611040576040519150601f19603f3d011682016040523d82523d6000602084013e611045565b606091505b5091509150611055828286611060565b979650505050505050565b6060831561106f575081610adf565b82511561107f5782518084602001fd5b816040517f08c379a000000000000000000000000000000000000000000000000000000000815260040161059b9190611159565b6000602082840312156110c557600080fd5b813573ffffffffffffffffffffffffffffffffffffffff81168114610adf57600080fd5b6000602082840312156110fb57600080fd5b81518015158114610adf57600080fd5b60006020828403121561111d57600080fd5b5035919050565b60006020828403121561113657600080fd5b5051919050565b6000825161114f818460208701611251565b9190910192915050565b6020815260008251806020840152611178816040850160208701611251565b601f017fffffffffffffffffffffffffffffffffffffffffffffffffffffffffffffffe0169190910160400192915050565b600082198211156111bd576111bd6112d1565b500190565b6000826111f8577f4e487b7100000000000000000000000000000000000000000000000000000000600052601260045260246000fd5b500490565b6000817fffffffffffffffffffffffffffffffffffffffffffffffffffffffffffffffff0483118215151615611235576112356112d1565b500290565b60008282101561124c5761124c6112d1565b500390565b60005b8381101561126c578181015183820152602001611254565b83811115610be55750506000910152565b600181811c9082168061129157607f821691505b602082108114156112cb577f4e487b7100000000000000000000000000000000000000000000000000000000600052602260045260246000fd5b50919050565b7f4e487b7100000000000000000000000000000000000000000000000000000000600052601160045260246000fd5b7f4e487b7100000000000000000000000000000000000000000000000000000000600052603260045260246000fdfea2646970667358221220363f1127ce84c5fda1b2ecac6cd60a1a4bd0c805a7c145391d78031ef27eed8c64736f6c63430008070033a26469706673582212203234929a847c587760c47591e4a7e34914214e5b47b6ce51d0fe2e795912215064736f6c63430008070033",
  "devdoc": {
    "kind": "dev",
    "methods": {},
    "version": 1
  },
  "userdoc": {
    "kind": "user",
    "methods": {},
    "version": 1
  },
  "storageLayout": {
    "storage": [
      {
        "astId": 1450,
        "contract": "contracts/__mocks__/OptionPoolFactoryMock.sol:OptionPoolFactoryMock",
        "label": "optionPools",
        "offset": 0,
        "slot": "0",
        "type": "t_mapping(t_bytes32,t_address)"
      }
    ],
    "types": {
      "t_address": {
        "encoding": "inplace",
        "label": "address",
        "numberOfBytes": "20"
      },
      "t_bytes32": {
        "encoding": "inplace",
        "label": "bytes32",
        "numberOfBytes": "32"
      },
      "t_mapping(t_bytes32,t_address)": {
        "encoding": "mapping",
        "key": "t_bytes32",
        "label": "mapping(bytes32 => address)",
        "numberOfBytes": "32",
        "value": "t_address"
      }
    }
  }
}