{
  "address": "0x2b3aA6F9b5B1535985786B4bF81FDC994f7BF9C3",
  "abi": [
    {
      "inputs": [
        {
          "components": [
            {
              "internalType": "address",
              "name": "pool",
              "type": "address"
            },
            {
              "internalType": "address",
              "name": "receiver",
              "type": "address"
            },
            {
              "internalType": "uint256",
              "name": "id",
              "type": "uint256"
            }
          ],
          "internalType": "struct OptionCanSettle",
          "name": "optionCanSettle",
          "type": "tuple"
        }
      ],
      "name": "checker",
      "outputs": [
        {
          "internalType": "bool",
          "name": "",
          "type": "bool"
        },
        {
          "internalType": "bytes",
          "name": "data",
          "type": "bytes"
        }
      ],
      "stateMutability": "view",
      "type": "function"
    }
  ],
  "transactionHash": "0xddfebece09a30e04a5b52d6fad26796a3528822b94da554ef7607a1e8a39af3c",
  "args": [],
  "solcInputHash": "85c5547de572ec02e3d55f3b636dd9df",
  "bytecode": "0x608060405234801561001057600080fd5b50610793806100206000396000f3fe608060405234801561001057600080fd5b506004361061002b5760003560e01c8063d792128314610030575b600080fd5b61004361003e3660046103b5565b61005a565b604051610051929190610583565b60405180910390f35b805160208201516040517fbebf72c300000000000000000000000000000000000000000000000000000000815273ffffffffffffffffffffffffffffffffffffffff91821660048201526000926060929091849183169063bebf72c39060240160006040518083038186803b1580156100d257600080fd5b505afa1580156100e6573d6000803e3d6000fd5b505050506040513d6000823e601f3d9081017fffffffffffffffffffffffffffffffffffffffffffffffffffffffffffffffe016820160405261012c9190810190610420565b60200151856040015181518110610145576101456106da565b60200260200101519050428273ffffffffffffffffffffffffffffffffffffffff16636c60a1f86040518163ffffffff1660e01b815260040160206040518083038186803b15801561019657600080fd5b505afa1580156101aa573d6000803e3d6000fd5b505050506040513d601f19601f820116820180604052508101906101ce919061056a565b8373ffffffffffffffffffffffffffffffffffffffff166399bc0aea6040518163ffffffff1660e01b815260040160206040518083038186803b15801561021457600080fd5b505afa158015610228573d6000803e3d6000fd5b505050506040513d601f19601f8201168201806040525081019061024c919061056a565b836060015161025b919061069b565b610265919061069b565b11801561027357508060a001515b15610359576020850151604080870151905173ffffffffffffffffffffffffffffffffffffffff909216602483015260448201526000907f15afd40900000000000000000000000000000000000000000000000000000000906064015b604080517fffffffffffffffffffffffffffffffffffffffffffffffffffffffffffffffe08184030181529190526020810180517bffffffffffffffffffffffffffffffffffffffffffffffffffffffff167fffffffff000000000000000000000000000000000000000000000000000000009093169290921790915290969095509350505050565b6020850151604080870151905173ffffffffffffffffffffffffffffffffffffffff909216602483015260448201526001907f15afd40900000000000000000000000000000000000000000000000000000000906064016102d0565b6000606082840312156103c757600080fd5b6040516060810181811067ffffffffffffffff821117156103ea576103ea610709565b60405282356103f881610738565b8152602083013561040881610738565b60208201526040928301359281019290925250919050565b6000602080838503121561043357600080fd5b825167ffffffffffffffff8082111561044b57600080fd5b8185019150604080838803121561046157600080fd5b610469610600565b83518152848401518381111561047e57600080fd5b80850194505087601f85011261049357600080fd5b8351838111156104a5576104a5610709565b6104b3868260051b0161064c565b818152868101945085870160c0808402880189018c10156104d357600080fd5b600097505b838810156105565780828d0312156104ef57600080fd5b6104f7610629565b825181528983015161050881610738565b818b01528287015187820152606080840151908201526080808401519082015260a080840151801515811461053c57600080fd5b9082015287526001979097019695880195908101906104d8565b505095820195909552979650505050505050565b60006020828403121561057c57600080fd5b5051919050565b821515815260006020604081840152835180604085015260005b818110156105b95785810183015185820160600152820161059d565b818111156105cb576000606083870101525b50601f017fffffffffffffffffffffffffffffffffffffffffffffffffffffffffffffffe01692909201606001949350505050565b6040805190810167ffffffffffffffff8111828210171561062357610623610709565b60405290565b60405160c0810167ffffffffffffffff8111828210171561062357610623610709565b604051601f82017fffffffffffffffffffffffffffffffffffffffffffffffffffffffffffffffe016810167ffffffffffffffff8111828210171561069357610693610709565b604052919050565b600082198211156106d5577f4e487b7100000000000000000000000000000000000000000000000000000000600052601160045260246000fd5b500190565b7f4e487b7100000000000000000000000000000000000000000000000000000000600052603260045260246000fd5b7f4e487b7100000000000000000000000000000000000000000000000000000000600052604160045260246000fd5b73ffffffffffffffffffffffffffffffffffffffff8116811461075a57600080fd5b5056fea2646970667358221220d1744f5d32ec42fd2e187af176b42872656a1efce7e1881e0b685950a4aa768364736f6c63430008070033",
  "devdoc": {
    "kind": "dev",
    "methods": {},
    "version": 1
  },
  "userdoc": {
    "kind": "user",
    "methods": {},
    "version": 1
  },
  "storageLayout": {
    "storage": [],
    "types": null
  }
}